{
	"data": {
		"bytecode": {
			"linkReferences": {},
			"object": "608060405234801561000f575f80fd5b50610cf48061001d5f395ff3fe608060405234801561000f575f80fd5b5060043610610034575f3560e01c80633c34cf58146100385780634daf5ad914610054575b5f80fd5b610052600480360381019061004d9190610515565b610070565b005b61006e60048036038101906100699190610572565b61022d565b005b5f805f3373ffffffffffffffffffffffffffffffffffffffff1673ffffffffffffffffffffffffffffffffffffffff1681526020019081526020015f2083836040516100bd92919061062c565b908152602001604051809103902080546100d690610671565b80601f016020809104026020016040519081016040528092919081815260200182805461010290610671565b801561014d5780601f106101245761010080835404028352916020019161014d565b820191905f5260205f20905b81548152906001019060200180831161013057829003601f168201915b505050505090505f8190505f61019960206040518060400160405280601081526020017f7175616e74756d737572656e6f6e63650000000000000000000000000000000081525061029d565b6101a2906106da565b90505f604051806060016040528060228152602001610c9d6022913990505f6101cd88848685610388565b90503373ffffffffffffffffffffffffffffffffffffffff167fd60a6b619630cdee682f7af9b16413215878e623edc72b94e3a1103951c153918489898560405161021b949392919061080b565b60405180910390a25050505050505050565b81815f803373ffffffffffffffffffffffffffffffffffffffff1673ffffffffffffffffffffffffffffffffffffffff1681526020019081526020015f20868660405161027b92919061062c565b90815260200160405180910390209182610296929190610a21565b5050505050565b60605f8073010000000000000000000000000000000000000173ffffffffffffffffffffffffffffffffffffffff1685856040516020016102df929190610afd565b6040516020818303038152906040526040516102fb9190610b65565b5f60405180830381855afa9150503d805f8114610333576040519150601f19603f3d011682016040523d82523d5f602084013e610338565b606091505b50915091508161037d576040517f08c379a000000000000000000000000000000000000000000000000000000000815260040161037490610bc5565b60405180910390fd5b809250505092915050565b60605f8073010000000000000000000000000000000000000373ffffffffffffffffffffffffffffffffffffffff16878787876040516020016103ce9493929190610be3565b6040516020818303038152906040526040516103ea9190610b65565b5f60405180830381855afa9150503d805f8114610422576040519150601f19603f3d011682016040523d82523d5f602084013e610427565b606091505b50915091508161046c576040517f08c379a000000000000000000000000000000000000000000000000000000000815260040161046390610c7e565b60405180910390fd5b8092505050949350505050565b5f80fd5b5f80fd5b5f819050919050565b61049381610481565b811461049d575f80fd5b50565b5f813590506104ae8161048a565b92915050565b5f80fd5b5f80fd5b5f80fd5b5f8083601f8401126104d5576104d46104b4565b5b8235905067ffffffffffffffff8111156104f2576104f16104b8565b5b60208301915083600182028301111561050e5761050d6104bc565b5b9250929050565b5f805f6040848603121561052c5761052b610479565b5b5f610539868287016104a0565b935050602084013567ffffffffffffffff81111561055a5761055961047d565b5b610566868287016104c0565b92509250509250925092565b5f805f806040858703121561058a57610589610479565b5b5f85013567ffffffffffffffff8111156105a7576105a661047d565b5b6105b3878288016104c0565b9450945050602085013567ffffffffffffffff8111156105d6576105d561047d565b5b6105e2878288016104c0565b925092505092959194509250565b5f81905092915050565b828183375f83830152505050565b5f61061383856105f0565b93506106208385846105fa565b82840190509392505050565b5f610638828486610608565b91508190509392505050565b7f4e487b71000000000000000000000000000000000000000000000000000000005f52602260045260245ffd5b5f600282049050600182168061068857607f821691505b60208210810361069b5761069a610644565b5b50919050565b5f81519050919050565b5f819050602082019050919050565b5f6106c58251610481565b80915050919050565b5f82821b905092915050565b5f6106e4826106a1565b826106ee846106ab565b90506106f9816106ba565b92506020821015610739576107347fffffffffffffffffffffffffffffffffffffffffffffffffffffffffffffffff836020036008026106ce565b831692505b5050919050565b61074981610481565b82525050565b5f82825260208201905092915050565b5f601f19601f8301169050919050565b5f61077a838561074f565b93506107878385846105fa565b6107908361075f565b840190509392505050565b5f82825260208201905092915050565b5f5b838110156107c85780820151818401526020810190506107ad565b5f8484015250505050565b5f6107dd826106a1565b6107e7818561079b565b93506107f78185602086016107ab565b6108008161075f565b840191505092915050565b5f60608201905061081e5f830187610740565b818103602083015261083181858761076f565b9050818103604083015261084581846107d3565b905095945050505050565b5f82905092915050565b7f4e487b71000000000000000000000000000000000000000000000000000000005f52604160045260245ffd5b5f819050815f5260205f209050919050565b5f6020601f8301049050919050565b5f600883026108d77fffffffffffffffffffffffffffffffffffffffffffffffffffffffffffffffff826106ce565b6108e186836106ce565b95508019841693508086168417925050509392505050565b5f819050919050565b5f819050919050565b5f61092561092061091b846108f9565b610902565b6108f9565b9050919050565b5f819050919050565b61093e8361090b565b61095261094a8261092c565b8484546108a8565b825550505050565b5f90565b61096661095a565b610971818484610935565b505050565b5b81811015610994576109895f8261095e565b600181019050610977565b5050565b601f8211156109d9576109aa81610887565b6109b384610899565b810160208510156109c2578190505b6109d66109ce85610899565b830182610976565b50505b505050565b5f82821c905092915050565b5f6109f95f19846008026109de565b1980831691505092915050565b5f610a1183836109ea565b9150826002028217905092915050565b610a2b8383610850565b67ffffffffffffffff811115610a4457610a4361085a565b5b610a4e8254610671565b610a59828285610998565b5f601f831160018114610a86575f8415610a74578287013590505b610a7e8582610a06565b865550610ae5565b601f198416610a9486610887565b5f5b82811015610abb57848901358255600182019150602085019450602081019050610a96565b86831015610ad85784890135610ad4601f8916826109ea565b8355505b6001600288020188555050505b50505050505050565b610af7816108f9565b82525050565b5f604082019050610b105f830185610aee565b8181036020830152610b2281846107d3565b90509392505050565b5f81905092915050565b5f610b3f826106a1565b610b498185610b2b565b9350610b598185602086016107ab565b80840191505092915050565b5f610b708284610b35565b915081905092915050565b7f72616e646f6d42797465733a206661696c6564000000000000000000000000005f82015250565b5f610baf60138361074f565b9150610bba82610b7b565b602082019050919050565b5f6020820190508181035f830152610bdc81610ba3565b9050919050565b5f608082019050610bf65f830187610740565b610c036020830186610740565b8181036040830152610c1581856107d3565b90508181036060830152610c2981846107d3565b905095945050505050565b7f656e63727970743a206661696c656400000000000000000000000000000000005f82015250565b5f610c68600f8361074f565b9150610c7382610c34565b602082019050919050565b5f6020820190508181035f830152610c9581610c5c565b905091905056fe6164646974696f6e616c2073657175656e636520666f722072616e646f6d6e657373a264697066735822122000f88e939cc9bed22627fccac58a6dcaa87e09bb36f5d2ad14c6f666699e1cf164736f6c63430008180033",
			"opcodes": "PUSH1 0x80 PUSH1 0x40 MSTORE CALLVALUE DUP1 ISZERO PUSH2 0xF JUMPI PUSH0 DUP1 REVERT JUMPDEST POP PUSH2 0xCF4 DUP1 PUSH2 0x1D PUSH0 CODECOPY PUSH0 RETURN INVALID PUSH1 0x80 PUSH1 0x40 MSTORE CALLVALUE DUP1 ISZERO PUSH2 0xF JUMPI PUSH0 DUP1 REVERT JUMPDEST POP PUSH1 0x4 CALLDATASIZE LT PUSH2 0x34 JUMPI PUSH0 CALLDATALOAD PUSH1 0xE0 SHR DUP1 PUSH4 0x3C34CF58 EQ PUSH2 0x38 JUMPI DUP1 PUSH4 0x4DAF5AD9 EQ PUSH2 0x54 JUMPI JUMPDEST PUSH0 DUP1 REVERT JUMPDEST PUSH2 0x52 PUSH1 0x4 DUP1 CALLDATASIZE SUB DUP2 ADD SWAP1 PUSH2 0x4D SWAP2 SWAP1 PUSH2 0x515 JUMP JUMPDEST PUSH2 0x70 JUMP JUMPDEST STOP JUMPDEST PUSH2 0x6E PUSH1 0x4 DUP1 CALLDATASIZE SUB DUP2 ADD SWAP1 PUSH2 0x69 SWAP2 SWAP1 PUSH2 0x572 JUMP JUMPDEST PUSH2 0x22D JUMP JUMPDEST STOP JUMPDEST PUSH0 DUP1 PUSH0 CALLER PUSH20 0xFFFFFFFFFFFFFFFFFFFFFFFFFFFFFFFFFFFFFFFF AND PUSH20 0xFFFFFFFFFFFFFFFFFFFFFFFFFFFFFFFFFFFFFFFF AND DUP2 MSTORE PUSH1 0x20 ADD SWAP1 DUP2 MSTORE PUSH1 0x20 ADD PUSH0 KECCAK256 DUP4 DUP4 PUSH1 0x40 MLOAD PUSH2 0xBD SWAP3 SWAP2 SWAP1 PUSH2 0x62C JUMP JUMPDEST SWAP1 DUP2 MSTORE PUSH1 0x20 ADD PUSH1 0x40 MLOAD DUP1 SWAP2 SUB SWAP1 KECCAK256 DUP1 SLOAD PUSH2 0xD6 SWAP1 PUSH2 0x671 JUMP JUMPDEST DUP1 PUSH1 0x1F ADD PUSH1 0x20 DUP1 SWAP2 DIV MUL PUSH1 0x20 ADD PUSH1 0x40 MLOAD SWAP1 DUP2 ADD PUSH1 0x40 MSTORE DUP1 SWAP3 SWAP2 SWAP1 DUP2 DUP2 MSTORE PUSH1 0x20 ADD DUP3 DUP1 SLOAD PUSH2 0x102 SWAP1 PUSH2 0x671 JUMP JUMPDEST DUP1 ISZERO PUSH2 0x14D JUMPI DUP1 PUSH1 0x1F LT PUSH2 0x124 JUMPI PUSH2 0x100 DUP1 DUP4 SLOAD DIV MUL DUP4 MSTORE SWAP2 PUSH1 0x20 ADD SWAP2 PUSH2 0x14D JUMP JUMPDEST DUP3 ADD SWAP2 SWAP1 PUSH0 MSTORE PUSH1 0x20 PUSH0 KECCAK256 SWAP1 JUMPDEST DUP2 SLOAD DUP2 MSTORE SWAP1 PUSH1 0x1 ADD SWAP1 PUSH1 0x20 ADD DUP1 DUP4 GT PUSH2 0x130 JUMPI DUP3 SWAP1 SUB PUSH1 0x1F AND DUP3 ADD SWAP2 JUMPDEST POP POP POP POP POP SWAP1 POP PUSH0 DUP2 SWAP1 POP PUSH0 PUSH2 0x199 PUSH1 0x20 PUSH1 0x40 MLOAD DUP1 PUSH1 0x40 ADD PUSH1 0x40 MSTORE DUP1 PUSH1 0x10 DUP2 MSTORE PUSH1 0x20 ADD PUSH32 0x7175616E74756D737572656E6F6E636500000000000000000000000000000000 DUP2 MSTORE POP PUSH2 0x29D JUMP JUMPDEST PUSH2 0x1A2 SWAP1 PUSH2 0x6DA JUMP JUMPDEST SWAP1 POP PUSH0 PUSH1 0x40 MLOAD DUP1 PUSH1 0x60 ADD PUSH1 0x40 MSTORE DUP1 PUSH1 0x22 DUP2 MSTORE PUSH1 0x20 ADD PUSH2 0xC9D PUSH1 0x22 SWAP2 CODECOPY SWAP1 POP PUSH0 PUSH2 0x1CD DUP9 DUP5 DUP7 DUP6 PUSH2 0x388 JUMP JUMPDEST SWAP1 POP CALLER PUSH20 0xFFFFFFFFFFFFFFFFFFFFFFFFFFFFFFFFFFFFFFFF AND PUSH32 0xD60A6B619630CDEE682F7AF9B16413215878E623EDC72B94E3A1103951C15391 DUP5 DUP10 DUP10 DUP6 PUSH1 0x40 MLOAD PUSH2 0x21B SWAP5 SWAP4 SWAP3 SWAP2 SWAP1 PUSH2 0x80B JUMP JUMPDEST PUSH1 0x40 MLOAD DUP1 SWAP2 SUB SWAP1 LOG2 POP POP POP POP POP POP POP POP JUMP JUMPDEST DUP2 DUP2 PUSH0 DUP1 CALLER PUSH20 0xFFFFFFFFFFFFFFFFFFFFFFFFFFFFFFFFFFFFFFFF AND PUSH20 0xFFFFFFFFFFFFFFFFFFFFFFFFFFFFFFFFFFFFFFFF AND DUP2 MSTORE PUSH1 0x20 ADD SWAP1 DUP2 MSTORE PUSH1 0x20 ADD PUSH0 KECCAK256 DUP7 DUP7 PUSH1 0x40 MLOAD PUSH2 0x27B SWAP3 SWAP2 SWAP1 PUSH2 0x62C JUMP JUMPDEST SWAP1 DUP2 MSTORE PUSH1 0x20 ADD PUSH1 0x40 MLOAD DUP1 SWAP2 SUB SWAP1 KECCAK256 SWAP2 DUP3 PUSH2 0x296 SWAP3 SWAP2 SWAP1 PUSH2 0xA21 JUMP JUMPDEST POP POP POP POP POP JUMP JUMPDEST PUSH1 0x60 PUSH0 DUP1 PUSH20 0x100000000000000000000000000000000000001 PUSH20 0xFFFFFFFFFFFFFFFFFFFFFFFFFFFFFFFFFFFFFFFF AND DUP6 DUP6 PUSH1 0x40 MLOAD PUSH1 0x20 ADD PUSH2 0x2DF SWAP3 SWAP2 SWAP1 PUSH2 0xAFD JUMP JUMPDEST PUSH1 0x40 MLOAD PUSH1 0x20 DUP2 DUP4 SUB SUB DUP2 MSTORE SWAP1 PUSH1 0x40 MSTORE PUSH1 0x40 MLOAD PUSH2 0x2FB SWAP2 SWAP1 PUSH2 0xB65 JUMP JUMPDEST PUSH0 PUSH1 0x40 MLOAD DUP1 DUP4 SUB DUP2 DUP6 GAS STATICCALL SWAP2 POP POP RETURNDATASIZE DUP1 PUSH0 DUP2 EQ PUSH2 0x333 JUMPI PUSH1 0x40 MLOAD SWAP2 POP PUSH1 0x1F NOT PUSH1 0x3F RETURNDATASIZE ADD AND DUP3 ADD PUSH1 0x40 MSTORE RETURNDATASIZE DUP3 MSTORE RETURNDATASIZE PUSH0 PUSH1 0x20 DUP5 ADD RETURNDATACOPY PUSH2 0x338 JUMP JUMPDEST PUSH1 0x60 SWAP2 POP JUMPDEST POP SWAP2 POP SWAP2 POP DUP2 PUSH2 0x37D JUMPI PUSH1 0x40 MLOAD PUSH32 0x8C379A000000000000000000000000000000000000000000000000000000000 DUP2 MSTORE PUSH1 0x4 ADD PUSH2 0x374 SWAP1 PUSH2 0xBC5 JUMP JUMPDEST PUSH1 0x40 MLOAD DUP1 SWAP2 SUB SWAP1 REVERT JUMPDEST DUP1 SWAP3 POP POP POP SWAP3 SWAP2 POP POP JUMP JUMPDEST PUSH1 0x60 PUSH0 DUP1 PUSH20 0x100000000000000000000000000000000000003 PUSH20 0xFFFFFFFFFFFFFFFFFFFFFFFFFFFFFFFFFFFFFFFF AND DUP8 DUP8 DUP8 DUP8 PUSH1 0x40 MLOAD PUSH1 0x20 ADD PUSH2 0x3CE SWAP5 SWAP4 SWAP3 SWAP2 SWAP1 PUSH2 0xBE3 JUMP JUMPDEST PUSH1 0x40 MLOAD PUSH1 0x20 DUP2 DUP4 SUB SUB DUP2 MSTORE SWAP1 PUSH1 0x40 MSTORE PUSH1 0x40 MLOAD PUSH2 0x3EA SWAP2 SWAP1 PUSH2 0xB65 JUMP JUMPDEST PUSH0 PUSH1 0x40 MLOAD DUP1 DUP4 SUB DUP2 DUP6 GAS STATICCALL SWAP2 POP POP RETURNDATASIZE DUP1 PUSH0 DUP2 EQ PUSH2 0x422 JUMPI PUSH1 0x40 MLOAD SWAP2 POP PUSH1 0x1F NOT PUSH1 0x3F RETURNDATASIZE ADD AND DUP3 ADD PUSH1 0x40 MSTORE RETURNDATASIZE DUP3 MSTORE RETURNDATASIZE PUSH0 PUSH1 0x20 DUP5 ADD RETURNDATACOPY PUSH2 0x427 JUMP JUMPDEST PUSH1 0x60 SWAP2 POP JUMPDEST POP SWAP2 POP SWAP2 POP DUP2 PUSH2 0x46C JUMPI PUSH1 0x40 MLOAD PUSH32 0x8C379A000000000000000000000000000000000000000000000000000000000 DUP2 MSTORE PUSH1 0x4 ADD PUSH2 0x463 SWAP1 PUSH2 0xC7E JUMP JUMPDEST PUSH1 0x40 MLOAD DUP1 SWAP2 SUB SWAP1 REVERT JUMPDEST DUP1 SWAP3 POP POP POP SWAP5 SWAP4 POP POP POP POP JUMP JUMPDEST PUSH0 DUP1 REVERT JUMPDEST PUSH0 DUP1 REVERT JUMPDEST PUSH0 DUP2 SWAP1 POP SWAP2 SWAP1 POP JUMP JUMPDEST PUSH2 0x493 DUP2 PUSH2 0x481 JUMP JUMPDEST DUP2 EQ PUSH2 0x49D JUMPI PUSH0 DUP1 REVERT JUMPDEST POP JUMP JUMPDEST PUSH0 DUP2 CALLDATALOAD SWAP1 POP PUSH2 0x4AE DUP2 PUSH2 0x48A JUMP JUMPDEST SWAP3 SWAP2 POP POP JUMP JUMPDEST PUSH0 DUP1 REVERT JUMPDEST PUSH0 DUP1 REVERT JUMPDEST PUSH0 DUP1 REVERT JUMPDEST PUSH0 DUP1 DUP4 PUSH1 0x1F DUP5 ADD SLT PUSH2 0x4D5 JUMPI PUSH2 0x4D4 PUSH2 0x4B4 JUMP JUMPDEST JUMPDEST DUP3 CALLDATALOAD SWAP1 POP PUSH8 0xFFFFFFFFFFFFFFFF DUP2 GT ISZERO PUSH2 0x4F2 JUMPI PUSH2 0x4F1 PUSH2 0x4B8 JUMP JUMPDEST JUMPDEST PUSH1 0x20 DUP4 ADD SWAP2 POP DUP4 PUSH1 0x1 DUP3 MUL DUP4 ADD GT ISZERO PUSH2 0x50E JUMPI PUSH2 0x50D PUSH2 0x4BC JUMP JUMPDEST JUMPDEST SWAP3 POP SWAP3 SWAP1 POP JUMP JUMPDEST PUSH0 DUP1 PUSH0 PUSH1 0x40 DUP5 DUP7 SUB SLT ISZERO PUSH2 0x52C JUMPI PUSH2 0x52B PUSH2 0x479 JUMP JUMPDEST JUMPDEST PUSH0 PUSH2 0x539 DUP7 DUP3 DUP8 ADD PUSH2 0x4A0 JUMP JUMPDEST SWAP4 POP POP PUSH1 0x20 DUP5 ADD CALLDATALOAD PUSH8 0xFFFFFFFFFFFFFFFF DUP2 GT ISZERO PUSH2 0x55A JUMPI PUSH2 0x559 PUSH2 0x47D JUMP JUMPDEST JUMPDEST PUSH2 0x566 DUP7 DUP3 DUP8 ADD PUSH2 0x4C0 JUMP JUMPDEST SWAP3 POP SWAP3 POP POP SWAP3 POP SWAP3 POP SWAP3 JUMP JUMPDEST PUSH0 DUP1 PUSH0 DUP1 PUSH1 0x40 DUP6 DUP8 SUB SLT ISZERO PUSH2 0x58A JUMPI PUSH2 0x589 PUSH2 0x479 JUMP JUMPDEST JUMPDEST PUSH0 DUP6 ADD CALLDATALOAD PUSH8 0xFFFFFFFFFFFFFFFF DUP2 GT ISZERO PUSH2 0x5A7 JUMPI PUSH2 0x5A6 PUSH2 0x47D JUMP JUMPDEST JUMPDEST PUSH2 0x5B3 DUP8 DUP3 DUP9 ADD PUSH2 0x4C0 JUMP JUMPDEST SWAP5 POP SWAP5 POP POP PUSH1 0x20 DUP6 ADD CALLDATALOAD PUSH8 0xFFFFFFFFFFFFFFFF DUP2 GT ISZERO PUSH2 0x5D6 JUMPI PUSH2 0x5D5 PUSH2 0x47D JUMP JUMPDEST JUMPDEST PUSH2 0x5E2 DUP8 DUP3 DUP9 ADD PUSH2 0x4C0 JUMP JUMPDEST SWAP3 POP SWAP3 POP POP SWAP3 SWAP6 SWAP2 SWAP5 POP SWAP3 POP JUMP JUMPDEST PUSH0 DUP2 SWAP1 POP SWAP3 SWAP2 POP POP JUMP JUMPDEST DUP3 DUP2 DUP4 CALLDATACOPY PUSH0 DUP4 DUP4 ADD MSTORE POP POP POP JUMP JUMPDEST PUSH0 PUSH2 0x613 DUP4 DUP6 PUSH2 0x5F0 JUMP JUMPDEST SWAP4 POP PUSH2 0x620 DUP4 DUP6 DUP5 PUSH2 0x5FA JUMP JUMPDEST DUP3 DUP5 ADD SWAP1 POP SWAP4 SWAP3 POP POP POP JUMP JUMPDEST PUSH0 PUSH2 0x638 DUP3 DUP5 DUP7 PUSH2 0x608 JUMP JUMPDEST SWAP2 POP DUP2 SWAP1 POP SWAP4 SWAP3 POP POP POP JUMP JUMPDEST PUSH32 0x4E487B7100000000000000000000000000000000000000000000000000000000 PUSH0 MSTORE PUSH1 0x22 PUSH1 0x4 MSTORE PUSH1 0x24 PUSH0 REVERT JUMPDEST PUSH0 PUSH1 0x2 DUP3 DIV SWAP1 POP PUSH1 0x1 DUP3 AND DUP1 PUSH2 0x688 JUMPI PUSH1 0x7F DUP3 AND SWAP2 POP JUMPDEST PUSH1 0x20 DUP3 LT DUP2 SUB PUSH2 0x69B JUMPI PUSH2 0x69A PUSH2 0x644 JUMP JUMPDEST JUMPDEST POP SWAP2 SWAP1 POP JUMP JUMPDEST PUSH0 DUP2 MLOAD SWAP1 POP SWAP2 SWAP1 POP JUMP JUMPDEST PUSH0 DUP2 SWAP1 POP PUSH1 0x20 DUP3 ADD SWAP1 POP SWAP2 SWAP1 POP JUMP JUMPDEST PUSH0 PUSH2 0x6C5 DUP3 MLOAD PUSH2 0x481 JUMP JUMPDEST DUP1 SWAP2 POP POP SWAP2 SWAP1 POP JUMP JUMPDEST PUSH0 DUP3 DUP3 SHL SWAP1 POP SWAP3 SWAP2 POP POP JUMP JUMPDEST PUSH0 PUSH2 0x6E4 DUP3 PUSH2 0x6A1 JUMP JUMPDEST DUP3 PUSH2 0x6EE DUP5 PUSH2 0x6AB JUMP JUMPDEST SWAP1 POP PUSH2 0x6F9 DUP2 PUSH2 0x6BA JUMP JUMPDEST SWAP3 POP PUSH1 0x20 DUP3 LT ISZERO PUSH2 0x739 JUMPI PUSH2 0x734 PUSH32 0xFFFFFFFFFFFFFFFFFFFFFFFFFFFFFFFFFFFFFFFFFFFFFFFFFFFFFFFFFFFFFFFF DUP4 PUSH1 0x20 SUB PUSH1 0x8 MUL PUSH2 0x6CE JUMP JUMPDEST DUP4 AND SWAP3 POP JUMPDEST POP POP SWAP2 SWAP1 POP JUMP JUMPDEST PUSH2 0x749 DUP2 PUSH2 0x481 JUMP JUMPDEST DUP3 MSTORE POP POP JUMP JUMPDEST PUSH0 DUP3 DUP3 MSTORE PUSH1 0x20 DUP3 ADD SWAP1 POP SWAP3 SWAP2 POP POP JUMP JUMPDEST PUSH0 PUSH1 0x1F NOT PUSH1 0x1F DUP4 ADD AND SWAP1 POP SWAP2 SWAP1 POP JUMP JUMPDEST PUSH0 PUSH2 0x77A DUP4 DUP6 PUSH2 0x74F JUMP JUMPDEST SWAP4 POP PUSH2 0x787 DUP4 DUP6 DUP5 PUSH2 0x5FA JUMP JUMPDEST PUSH2 0x790 DUP4 PUSH2 0x75F JUMP JUMPDEST DUP5 ADD SWAP1 POP SWAP4 SWAP3 POP POP POP JUMP JUMPDEST PUSH0 DUP3 DUP3 MSTORE PUSH1 0x20 DUP3 ADD SWAP1 POP SWAP3 SWAP2 POP POP JUMP JUMPDEST PUSH0 JUMPDEST DUP4 DUP2 LT ISZERO PUSH2 0x7C8 JUMPI DUP1 DUP3 ADD MLOAD DUP2 DUP5 ADD MSTORE PUSH1 0x20 DUP2 ADD SWAP1 POP PUSH2 0x7AD JUMP JUMPDEST PUSH0 DUP5 DUP5 ADD MSTORE POP POP POP POP JUMP JUMPDEST PUSH0 PUSH2 0x7DD DUP3 PUSH2 0x6A1 JUMP JUMPDEST PUSH2 0x7E7 DUP2 DUP6 PUSH2 0x79B JUMP JUMPDEST SWAP4 POP PUSH2 0x7F7 DUP2 DUP6 PUSH1 0x20 DUP7 ADD PUSH2 0x7AB JUMP JUMPDEST PUSH2 0x800 DUP2 PUSH2 0x75F JUMP JUMPDEST DUP5 ADD SWAP2 POP POP SWAP3 SWAP2 POP POP JUMP JUMPDEST PUSH0 PUSH1 0x60 DUP3 ADD SWAP1 POP PUSH2 0x81E PUSH0 DUP4 ADD DUP8 PUSH2 0x740 JUMP JUMPDEST DUP2 DUP2 SUB PUSH1 0x20 DUP4 ADD MSTORE PUSH2 0x831 DUP2 DUP6 DUP8 PUSH2 0x76F JUMP JUMPDEST SWAP1 POP DUP2 DUP2 SUB PUSH1 0x40 DUP4 ADD MSTORE PUSH2 0x845 DUP2 DUP5 PUSH2 0x7D3 JUMP JUMPDEST SWAP1 POP SWAP6 SWAP5 POP POP POP POP POP JUMP JUMPDEST PUSH0 DUP3 SWAP1 POP SWAP3 SWAP2 POP POP JUMP JUMPDEST PUSH32 0x4E487B7100000000000000000000000000000000000000000000000000000000 PUSH0 MSTORE PUSH1 0x41 PUSH1 0x4 MSTORE PUSH1 0x24 PUSH0 REVERT JUMPDEST PUSH0 DUP2 SWAP1 POP DUP2 PUSH0 MSTORE PUSH1 0x20 PUSH0 KECCAK256 SWAP1 POP SWAP2 SWAP1 POP JUMP JUMPDEST PUSH0 PUSH1 0x20 PUSH1 0x1F DUP4 ADD DIV SWAP1 POP SWAP2 SWAP1 POP JUMP JUMPDEST PUSH0 PUSH1 0x8 DUP4 MUL PUSH2 0x8D7 PUSH32 0xFFFFFFFFFFFFFFFFFFFFFFFFFFFFFFFFFFFFFFFFFFFFFFFFFFFFFFFFFFFFFFFF DUP3 PUSH2 0x6CE JUMP JUMPDEST PUSH2 0x8E1 DUP7 DUP4 PUSH2 0x6CE JUMP JUMPDEST SWAP6 POP DUP1 NOT DUP5 AND SWAP4 POP DUP1 DUP7 AND DUP5 OR SWAP3 POP POP POP SWAP4 SWAP3 POP POP POP JUMP JUMPDEST PUSH0 DUP2 SWAP1 POP SWAP2 SWAP1 POP JUMP JUMPDEST PUSH0 DUP2 SWAP1 POP SWAP2 SWAP1 POP JUMP JUMPDEST PUSH0 PUSH2 0x925 PUSH2 0x920 PUSH2 0x91B DUP5 PUSH2 0x8F9 JUMP JUMPDEST PUSH2 0x902 JUMP JUMPDEST PUSH2 0x8F9 JUMP JUMPDEST SWAP1 POP SWAP2 SWAP1 POP JUMP JUMPDEST PUSH0 DUP2 SWAP1 POP SWAP2 SWAP1 POP JUMP JUMPDEST PUSH2 0x93E DUP4 PUSH2 0x90B JUMP JUMPDEST PUSH2 0x952 PUSH2 0x94A DUP3 PUSH2 0x92C JUMP JUMPDEST DUP5 DUP5 SLOAD PUSH2 0x8A8 JUMP JUMPDEST DUP3 SSTORE POP POP POP POP JUMP JUMPDEST PUSH0 SWAP1 JUMP JUMPDEST PUSH2 0x966 PUSH2 0x95A JUMP JUMPDEST PUSH2 0x971 DUP2 DUP5 DUP5 PUSH2 0x935 JUMP JUMPDEST POP POP POP JUMP JUMPDEST JUMPDEST DUP2 DUP2 LT ISZERO PUSH2 0x994 JUMPI PUSH2 0x989 PUSH0 DUP3 PUSH2 0x95E JUMP JUMPDEST PUSH1 0x1 DUP2 ADD SWAP1 POP PUSH2 0x977 JUMP JUMPDEST POP POP JUMP JUMPDEST PUSH1 0x1F DUP3 GT ISZERO PUSH2 0x9D9 JUMPI PUSH2 0x9AA DUP2 PUSH2 0x887 JUMP JUMPDEST PUSH2 0x9B3 DUP5 PUSH2 0x899 JUMP JUMPDEST DUP2 ADD PUSH1 0x20 DUP6 LT ISZERO PUSH2 0x9C2 JUMPI DUP2 SWAP1 POP JUMPDEST PUSH2 0x9D6 PUSH2 0x9CE DUP6 PUSH2 0x899 JUMP JUMPDEST DUP4 ADD DUP3 PUSH2 0x976 JUMP JUMPDEST POP POP JUMPDEST POP POP POP JUMP JUMPDEST PUSH0 DUP3 DUP3 SHR SWAP1 POP SWAP3 SWAP2 POP POP JUMP JUMPDEST PUSH0 PUSH2 0x9F9 PUSH0 NOT DUP5 PUSH1 0x8 MUL PUSH2 0x9DE JUMP JUMPDEST NOT DUP1 DUP4 AND SWAP2 POP POP SWAP3 SWAP2 POP POP JUMP JUMPDEST PUSH0 PUSH2 0xA11 DUP4 DUP4 PUSH2 0x9EA JUMP JUMPDEST SWAP2 POP DUP3 PUSH1 0x2 MUL DUP3 OR SWAP1 POP SWAP3 SWAP2 POP POP JUMP JUMPDEST PUSH2 0xA2B DUP4 DUP4 PUSH2 0x850 JUMP JUMPDEST PUSH8 0xFFFFFFFFFFFFFFFF DUP2 GT ISZERO PUSH2 0xA44 JUMPI PUSH2 0xA43 PUSH2 0x85A JUMP JUMPDEST JUMPDEST PUSH2 0xA4E DUP3 SLOAD PUSH2 0x671 JUMP JUMPDEST PUSH2 0xA59 DUP3 DUP3 DUP6 PUSH2 0x998 JUMP JUMPDEST PUSH0 PUSH1 0x1F DUP4 GT PUSH1 0x1 DUP2 EQ PUSH2 0xA86 JUMPI PUSH0 DUP5 ISZERO PUSH2 0xA74 JUMPI DUP3 DUP8 ADD CALLDATALOAD SWAP1 POP JUMPDEST PUSH2 0xA7E DUP6 DUP3 PUSH2 0xA06 JUMP JUMPDEST DUP7 SSTORE POP PUSH2 0xAE5 JUMP JUMPDEST PUSH1 0x1F NOT DUP5 AND PUSH2 0xA94 DUP7 PUSH2 0x887 JUMP JUMPDEST PUSH0 JUMPDEST DUP3 DUP2 LT ISZERO PUSH2 0xABB JUMPI DUP5 DUP10 ADD CALLDATALOAD DUP3 SSTORE PUSH1 0x1 DUP3 ADD SWAP2 POP PUSH1 0x20 DUP6 ADD SWAP5 POP PUSH1 0x20 DUP2 ADD SWAP1 POP PUSH2 0xA96 JUMP JUMPDEST DUP7 DUP4 LT ISZERO PUSH2 0xAD8 JUMPI DUP5 DUP10 ADD CALLDATALOAD PUSH2 0xAD4 PUSH1 0x1F DUP10 AND DUP3 PUSH2 0x9EA JUMP JUMPDEST DUP4 SSTORE POP JUMPDEST PUSH1 0x1 PUSH1 0x2 DUP9 MUL ADD DUP9 SSTORE POP POP POP JUMPDEST POP POP POP POP POP POP POP JUMP JUMPDEST PUSH2 0xAF7 DUP2 PUSH2 0x8F9 JUMP JUMPDEST DUP3 MSTORE POP POP JUMP JUMPDEST PUSH0 PUSH1 0x40 DUP3 ADD SWAP1 POP PUSH2 0xB10 PUSH0 DUP4 ADD DUP6 PUSH2 0xAEE JUMP JUMPDEST DUP2 DUP2 SUB PUSH1 0x20 DUP4 ADD MSTORE PUSH2 0xB22 DUP2 DUP5 PUSH2 0x7D3 JUMP JUMPDEST SWAP1 POP SWAP4 SWAP3 POP POP POP JUMP JUMPDEST PUSH0 DUP2 SWAP1 POP SWAP3 SWAP2 POP POP JUMP JUMPDEST PUSH0 PUSH2 0xB3F DUP3 PUSH2 0x6A1 JUMP JUMPDEST PUSH2 0xB49 DUP2 DUP6 PUSH2 0xB2B JUMP JUMPDEST SWAP4 POP PUSH2 0xB59 DUP2 DUP6 PUSH1 0x20 DUP7 ADD PUSH2 0x7AB JUMP JUMPDEST DUP1 DUP5 ADD SWAP2 POP POP SWAP3 SWAP2 POP POP JUMP JUMPDEST PUSH0 PUSH2 0xB70 DUP3 DUP5 PUSH2 0xB35 JUMP JUMPDEST SWAP2 POP DUP2 SWAP1 POP SWAP3 SWAP2 POP POP JUMP JUMPDEST PUSH32 0x72616E646F6D42797465733A206661696C656400000000000000000000000000 PUSH0 DUP3 ADD MSTORE POP JUMP JUMPDEST PUSH0 PUSH2 0xBAF PUSH1 0x13 DUP4 PUSH2 0x74F JUMP JUMPDEST SWAP2 POP PUSH2 0xBBA DUP3 PUSH2 0xB7B JUMP JUMPDEST PUSH1 0x20 DUP3 ADD SWAP1 POP SWAP2 SWAP1 POP JUMP JUMPDEST PUSH0 PUSH1 0x20 DUP3 ADD SWAP1 POP DUP2 DUP2 SUB PUSH0 DUP4 ADD MSTORE PUSH2 0xBDC DUP2 PUSH2 0xBA3 JUMP JUMPDEST SWAP1 POP SWAP2 SWAP1 POP JUMP JUMPDEST PUSH0 PUSH1 0x80 DUP3 ADD SWAP1 POP PUSH2 0xBF6 PUSH0 DUP4 ADD DUP8 PUSH2 0x740 JUMP JUMPDEST PUSH2 0xC03 PUSH1 0x20 DUP4 ADD DUP7 PUSH2 0x740 JUMP JUMPDEST DUP2 DUP2 SUB PUSH1 0x40 DUP4 ADD MSTORE PUSH2 0xC15 DUP2 DUP6 PUSH2 0x7D3 JUMP JUMPDEST SWAP1 POP DUP2 DUP2 SUB PUSH1 0x60 DUP4 ADD MSTORE PUSH2 0xC29 DUP2 DUP5 PUSH2 0x7D3 JUMP JUMPDEST SWAP1 POP SWAP6 SWAP5 POP POP POP POP POP JUMP JUMPDEST PUSH32 0x656E63727970743A206661696C65640000000000000000000000000000000000 PUSH0 DUP3 ADD MSTORE POP JUMP JUMPDEST PUSH0 PUSH2 0xC68 PUSH1 0xF DUP4 PUSH2 0x74F JUMP JUMPDEST SWAP2 POP PUSH2 0xC73 DUP3 PUSH2 0xC34 JUMP JUMPDEST PUSH1 0x20 DUP3 ADD SWAP1 POP SWAP2 SWAP1 POP JUMP JUMPDEST PUSH0 PUSH1 0x20 DUP3 ADD SWAP1 POP DUP2 DUP2 SUB PUSH0 DUP4 ADD MSTORE PUSH2 0xC95 DUP2 PUSH2 0xC5C JUMP JUMPDEST SWAP1 POP SWAP2 SWAP1 POP JUMP INVALID PUSH2 0x6464 PUSH10 0x74696F6E616C20736571 PUSH22 0x656E636520666F722072616E646F6D6E657373A26469 PUSH17 0x66735822122000F88E939CC9BED22627FC 0xCA 0xC5 DUP11 PUSH14 0xCAA87E09BB36F5D2AD14C6F66669 SWAP15 SHR CALL PUSH5 0x736F6C6343 STOP ADDMOD XOR STOP CALLER "
		},
		"gasEstimates": {
			"creation": {
				"codeDepositCost": "663200",
				"executionCost": "694",
				"totalCost": "663894"
			},
			"external": {
				"addPhrase(string,string)": "infinite",
				"getPhrase(bytes32,string)": "infinite"
			}
		},
		"methodIdentifiers": {
			"addPhrase(string,string)": "4daf5ad9",
			"getPhrase(bytes32,string)": "3c34cf58"
		}
	},
	"abi": [
		{
			"anonymous": false,
			"inputs": [
				{
					"indexed": true,
					"internalType": "address",
					"name": "sender",
					"type": "address"
				},
				{
					"indexed": false,
					"internalType": "bytes32",
					"name": "nonce",
					"type": "bytes32"
				},
				{
					"indexed": false,
					"internalType": "string",
					"name": "account",
					"type": "string"
				},
				{
					"indexed": false,
					"internalType": "bytes",
					"name": "phrasecipher",
					"type": "bytes"
				}
			],
			"name": "PhraseReturned",
			"type": "event"
		},
		{
			"inputs": [
				{
					"internalType": "string",
					"name": "account",
					"type": "string"
				},
				{
					"internalType": "string",
					"name": "phrs",
					"type": "string"
				}
			],
			"name": "addPhrase",
			"outputs": [],
			"stateMutability": "nonpayable",
			"type": "function"
		},
		{
			"inputs": [
				{
					"internalType": "bytes32",
					"name": "key",
					"type": "bytes32"
				},
				{
					"internalType": "string",
					"name": "account",
					"type": "string"
				}
			],
			"name": "getPhrase",
			"outputs": [],
			"stateMutability": "nonpayable",
			"type": "function"
		}
	]
}